:100000000C9434000C943E000C943E000C943E0082
:100010000C943E000C943E000C943E000C943E0068
:100020000C943E000C943E000C943E000C943E0058
:100030000C943E000C943E000C943E000C943E0048
:100040000C943E000C943E000C943E000C943E0038
:100050000C943E000C943E000C943E000C943E0028
:100060000C943E000C943E0011241FBECFEFD8E04C
:10007000DEBFCDBF0E9440000C945B000C940000DA
:100080008AB18FEF8AB921E040E951E03EEF88EE76
:1000900093E0FA013197F1F70197D9F7220F203851
:1000A000B1F788EE93E0FA013197F1F70197D9F7AC
:0A00B0003BB921E0ECCFF894FFCF3C
:00000001FF
